{
  "_format": "hh-sol-artifact-1",
  "contractName": "EternalWords",
  "sourceName": "contracts/EternalWords.sol",
  "abi": [
    {
      "inputs": [],
      "stateMutability": "payable",
      "type": "constructor"
    },
    {
      "anonymous": false,
      "inputs": [
        {
          "indexed": true,
          "internalType": "address",
          "name": "from",
          "type": "address"
        },
        {
          "indexed": false,
          "internalType": "uint256",
          "name": "timestamp",
          "type": "uint256"
        },
        {
          "indexed": false,
          "internalType": "string",
          "name": "message",
          "type": "string"
        }
      ],
      "name": "NewEternalWord",
      "type": "event"
    },
    {
      "inputs": [],
      "name": "getAllMessages",
      "outputs": [
        {
          "components": [
            {
              "internalType": "address",
              "name": "sender",
              "type": "address"
            },
            {
              "internalType": "string",
              "name": "message",
              "type": "string"
            },
            {
              "internalType": "uint256",
              "name": "timestamp",
              "type": "uint256"
            }
          ],
          "internalType": "struct EternalWords.EternalMessage[]",
          "name": "",
          "type": "tuple[]"
        }
      ],
      "stateMutability": "view",
      "type": "function"
    },
    {
      "inputs": [],
      "name": "getTotalMessages",
      "outputs": [
        {
          "internalType": "uint256",
          "name": "",
          "type": "uint256"
        }
      ],
      "stateMutability": "view",
      "type": "function"
    },
    {
      "inputs": [
        {
          "internalType": "address",
          "name": "",
          "type": "address"
        }
      ],
      "name": "lastMessagedAt",
      "outputs": [
        {
          "internalType": "uint256",
          "name": "",
          "type": "uint256"
        }
      ],
      "stateMutability": "view",
      "type": "function"
    },
    {
      "inputs": [
        {
          "internalType": "string",
          "name": "_message",
          "type": "string"
        }
      ],
      "name": "storeMessage",
      "outputs": [],
      "stateMutability": "nonpayable",
      "type": "function"
    }
  ],
  "bytecode": "0x6080604052620000336040518060800160405280604d8152602001620014ba604d91396200005b60201b6200065e1760201c565b60644442620000439190620001a8565b6200004f919062000245565b600181905550620002ec565b620000fb8160405160240162000072919062000168565b6040516020818303038152906040527f41304fac000000000000000000000000000000000000000000000000000000007bffffffffffffffffffffffffffffffffffffffffffffffffffffffff19166020820180517bffffffffffffffffffffffffffffffffffffffffffffffffffffffff8381831617835250505050620000fe60201b60201c565b50565b60008151905060006a636f6e736f6c652e6c6f679050602083016000808483855afa5050505050565b600062000134826200018c565b62000140818562000197565b9350620001528185602086016200020f565b6200015d81620002db565b840191505092915050565b6000602082019050818103600083015262000184818462000127565b905092915050565b600081519050919050565b600082825260208201905092915050565b6000620001b58262000205565b9150620001c28362000205565b9250827fffffffffffffffffffffffffffffffffffffffffffffffffffffffffffffffff03821115620001fa57620001f96200027d565b5b828201905092915050565b6000819050919050565b60005b838110156200022f57808201518184015260208101905062000212565b838111156200023f576000848401525b50505050565b6000620002528262000205565b91506200025f8362000205565b925082620002725762000271620002ac565b5b828206905092915050565b7f4e487b7100000000000000000000000000000000000000000000000000000000600052601160045260246000fd5b7f4e487b7100000000000000000000000000000000000000000000000000000000600052601260045260246000fd5b6000601f19601f8301169050919050565b6111be80620002fc6000396000f3fe608060405234801561001057600080fd5b506004361061004c5760003560e01c8063147e9108146100515780632ff4e6e41461006f57806353f5e3801461009f578063d4e36ba7146100bd575b600080fd5b6100596100d9565b6040516100669190610d0e565b60405180910390f35b61008960048036038101906100849190610978565b610107565b6040516100969190610d0e565b60405180910390f35b6100a761011f565b6040516100b49190610c0a565b60405180910390f35b6100d760048036038101906100d291906109a1565b610270565b005b60006100ff6040518060600160405280602c815260200161115d602c91396000546106f7565b600054905090565b60036020528060005260406000206000915090505481565b60606002805480602002602001604051908101604052809291908181526020016000905b8282101561026757838290600052602060002090600302016040518060600160405290816000820160009054906101000a900473ffffffffffffffffffffffffffffffffffffffff1673ffffffffffffffffffffffffffffffffffffffff1673ffffffffffffffffffffffffffffffffffffffff1681526020016001820180546101cc90610ef4565b80601f01602080910402602001604051908101604052809291908181526020018280546101f890610ef4565b80156102455780601f1061021a57610100808354040283529160200191610245565b820191906000526020600020905b81548152906001019060200180831161022857829003601f168201915b5050505050815260200160028201548152505081526020019060010190610143565b50505050905090565b42610e10600360003373ffffffffffffffffffffffffffffffffffffffff1673ffffffffffffffffffffffffffffffffffffffff168152602001908152602001600020546102be9190610e20565b106102fe576040517f08c379a00000000000000000000000000000000000000000000000000000000081526004016102f590610cee565b60405180910390fd5b42600360003373ffffffffffffffffffffffffffffffffffffffff1673ffffffffffffffffffffffffffffffffffffffff1681526020019081526020016000208190555060016000808282546103549190610e20565b9250508190555061039a6040518060400160405280601581526020017f2573206861732073656e742061206d657373616765000000000000000000000081525033610793565b600260405180606001604052803373ffffffffffffffffffffffffffffffffffffffff16815260200183815260200142815250908060018154018082558091505060019003906000526020600020906003020160009091909190915060008201518160000160006101000a81548173ffffffffffffffffffffffffffffffffffffffff021916908373ffffffffffffffffffffffffffffffffffffffff1602179055506020820151816001019080519060200190610459929190610858565b50604082015181600201555050606444426104749190610e20565b61047e9190610f57565b6001819055506104c56040518060400160405280601681526020017f52616e646f6d20232067656e6572617465643a202564000000000000000000008152506001546106f7565b60326001541161060b5761050e6040518060400160405280600781526020017f257320776f6e210000000000000000000000000000000000000000000000000081525033610793565b6000655af3107a400090504781111561055c576040517f08c379a000000000000000000000000000000000000000000000000000000000815260040161055390610cae565b60405180910390fd5b60003373ffffffffffffffffffffffffffffffffffffffff168260405161058290610bf5565b60006040518083038185875af1925050503d80600081146105bf576040519150601f19603f3d011682016040523d82523d6000602084013e6105c4565b606091505b5050905080610608576040517f08c379a00000000000000000000000000000000000000000000000000000000081526004016105ff90610cce565b60405180910390fd5b50505b3373ffffffffffffffffffffffffffffffffffffffff167f61938aa55baaf134b1afe669ad5e314787d2f553b8e3f47352e30ff7c7f0387a4283604051610653929190610d29565b60405180910390a250565b6106f4816040516024016106729190610c2c565b6040516020818303038152906040527f41304fac000000000000000000000000000000000000000000000000000000007bffffffffffffffffffffffffffffffffffffffffffffffffffffffff19166020820180517bffffffffffffffffffffffffffffffffffffffffffffffffffffffff838183161783525050505061082f565b50565b61078f828260405160240161070d929190610c7e565b6040516020818303038152906040527f9710a9d0000000000000000000000000000000000000000000000000000000007bffffffffffffffffffffffffffffffffffffffffffffffffffffffff19166020820180517bffffffffffffffffffffffffffffffffffffffffffffffffffffffff838183161783525050505061082f565b5050565b61082b82826040516024016107a9929190610c4e565b6040516020818303038152906040527f319af333000000000000000000000000000000000000000000000000000000007bffffffffffffffffffffffffffffffffffffffffffffffffffffffff19166020820180517bffffffffffffffffffffffffffffffffffffffffffffffffffffffff838183161783525050505061082f565b5050565b60008151905060006a636f6e736f6c652e6c6f679050602083016000808483855afa5050505050565b82805461086490610ef4565b90600052602060002090601f01602090048101928261088657600085556108cd565b82601f1061089f57805160ff19168380011785556108cd565b828001600101855582156108cd579182015b828111156108cc5782518255916020019190600101906108b1565b5b5090506108da91906108de565b5090565b5b808211156108f75760008160009055506001016108df565b5090565b600061090e61090984610d7e565b610d59565b90508281526020810184848401111561092657600080fd5b610931848285610eb2565b509392505050565b60008135905061094881611145565b92915050565b600082601f83011261095f57600080fd5b813561096f8482602086016108fb565b91505092915050565b60006020828403121561098a57600080fd5b600061099884828501610939565b91505092915050565b6000602082840312156109b357600080fd5b600082013567ffffffffffffffff8111156109cd57600080fd5b6109d98482850161094e565b91505092915050565b60006109ee8383610b87565b905092915050565b6109ff81610e76565b82525050565b610a0e81610e76565b82525050565b6000610a1f82610dbf565b610a298185610de2565b935083602082028501610a3b85610daf565b8060005b85811015610a775784840389528151610a5885826109e2565b9450610a6383610dd5565b925060208a01995050600181019050610a3f565b50829750879550505050505092915050565b6000610a9482610dca565b610a9e8185610dfe565b9350610aae818560208601610ec1565b610ab781611044565b840191505092915050565b6000610acd82610dca565b610ad78185610e0f565b9350610ae7818560208601610ec1565b610af081611044565b840191505092915050565b6000610b08603483610e0f565b9150610b1382611055565b604082019050919050565b6000610b2b602783610e0f565b9150610b36826110a4565b604082019050919050565b6000610b4e600083610df3565b9150610b59826110f3565b600082019050919050565b6000610b71603683610e0f565b9150610b7c826110f6565b604082019050919050565b6000606083016000830151610b9f60008601826109f6565b5060208301518482036020860152610bb78282610a89565b9150506040830151610bcc6040860182610bd7565b508091505092915050565b610be081610ea8565b82525050565b610bef81610ea8565b82525050565b6000610c0082610b41565b9150819050919050565b60006020820190508181036000830152610c248184610a14565b905092915050565b60006020820190508181036000830152610c468184610ac2565b905092915050565b60006040820190508181036000830152610c688185610ac2565b9050610c776020830184610a05565b9392505050565b60006040820190508181036000830152610c988185610ac2565b9050610ca76020830184610be6565b9392505050565b60006020820190508181036000830152610cc781610afb565b9050919050565b60006020820190508181036000830152610ce781610b1e565b9050919050565b60006020820190508181036000830152610d0781610b64565b9050919050565b6000602082019050610d236000830184610be6565b92915050565b6000604082019050610d3e6000830185610be6565b8181036020830152610d508184610ac2565b90509392505050565b6000610d63610d74565b9050610d6f8282610f26565b919050565b6000604051905090565b600067ffffffffffffffff821115610d9957610d98611015565b5b610da282611044565b9050602081019050919050565b6000819050602082019050919050565b600081519050919050565b600081519050919050565b6000602082019050919050565b600082825260208201905092915050565b600081905092915050565b600082825260208201905092915050565b600082825260208201905092915050565b6000610e2b82610ea8565b9150610e3683610ea8565b9250827fffffffffffffffffffffffffffffffffffffffffffffffffffffffffffffffff03821115610e6b57610e6a610f88565b5b828201905092915050565b6000610e8182610e88565b9050919050565b600073ffffffffffffffffffffffffffffffffffffffff82169050919050565b6000819050919050565b82818337600083830152505050565b60005b83811015610edf578082015181840152602081019050610ec4565b83811115610eee576000848401525b50505050565b60006002820490506001821680610f0c57607f821691505b60208210811415610f2057610f1f610fe6565b5b50919050565b610f2f82611044565b810181811067ffffffffffffffff82111715610f4e57610f4d611015565b5b80604052505050565b6000610f6282610ea8565b9150610f6d83610ea8565b925082610f7d57610f7c610fb7565b5b828206905092915050565b7f4e487b7100000000000000000000000000000000000000000000000000000000600052601160045260246000fd5b7f4e487b7100000000000000000000000000000000000000000000000000000000600052601260045260246000fd5b7f4e487b7100000000000000000000000000000000000000000000000000000000600052602260045260246000fd5b7f4e487b7100000000000000000000000000000000000000000000000000000000600052604160045260246000fd5b6000601f19601f8301169050919050565b7f547279696e6720746f207769746864726177206d6f7265206d6f6e657920746860008201527f616e2074686520636f6e7472616374206861732e000000000000000000000000602082015250565b7f4661696c656420746f207769746864726177206d6f6e65792066726f6d20636f60008201527f6e74726163742e00000000000000000000000000000000000000000000000000602082015250565b50565b7f596f7520617265206f6e6c7920616c6c6f7720746f2073656e642061206d657360008201527f73616765206576657279203630206d696e757465732100000000000000000000602082015250565b61114e81610e76565b811461115957600080fd5b5056fe5468697320636f6e74726163742068617320726563656976656420257320746f74616c206d65737361676573a264697066735822122065e78e5b4ddef2de9bd519ce962d1dc64ee78803d69c774a20189b24422f33e364736f6c6343000804003353656e642061206d65737361676520746f207468697320636f6e747261637420746f20696d6d6f7274616c697a65206974206f6e2074686520457468657265756d20626c6f636b636861696e21",
  "linkReferences": {},
  "deployedLinkReferences": {}
}